{
  "contractName": "JalehsArt",
  "abi": [
    {
      "inputs": [],
      "stateMutability": "nonpayable",
      "type": "constructor"
    },
    {
      "anonymous": false,
      "inputs": [
        {
          "indexed": true,
          "internalType": "address",
          "name": "owner",
          "type": "address"
        },
        {
          "indexed": true,
          "internalType": "address",
          "name": "approved",
          "type": "address"
        },
        {
          "indexed": true,
          "internalType": "uint256",
          "name": "tokenId",
          "type": "uint256"
        }
      ],
      "name": "Approval",
      "type": "event"
    },
    {
      "anonymous": false,
      "inputs": [
        {
          "indexed": true,
          "internalType": "address",
          "name": "owner",
          "type": "address"
        },
        {
          "indexed": true,
          "internalType": "address",
          "name": "operator",
          "type": "address"
        },
        {
          "indexed": false,
          "internalType": "bool",
          "name": "approved",
          "type": "bool"
        }
      ],
      "name": "ApprovalForAll",
      "type": "event"
    },
    {
      "anonymous": false,
      "inputs": [
        {
          "indexed": true,
          "internalType": "address",
          "name": "previousOwner",
          "type": "address"
        },
        {
          "indexed": true,
          "internalType": "address",
          "name": "newOwner",
          "type": "address"
        }
      ],
      "name": "OwnershipTransferred",
      "type": "event"
    },
    {
      "anonymous": false,
      "inputs": [
        {
          "indexed": true,
          "internalType": "address",
          "name": "from",
          "type": "address"
        },
        {
          "indexed": true,
          "internalType": "address",
          "name": "to",
          "type": "address"
        },
        {
          "indexed": true,
          "internalType": "uint256",
          "name": "tokenId",
          "type": "uint256"
        }
      ],
      "name": "Transfer",
      "type": "event"
    },
    {
      "inputs": [
        {
          "internalType": "address",
          "name": "to",
          "type": "address"
        },
        {
          "internalType": "uint256",
          "name": "tokenId",
          "type": "uint256"
        }
      ],
      "name": "approve",
      "outputs": [],
      "stateMutability": "nonpayable",
      "type": "function"
    },
    {
      "inputs": [
        {
          "internalType": "address",
          "name": "owner",
          "type": "address"
        }
      ],
      "name": "balanceOf",
      "outputs": [
        {
          "internalType": "uint256",
          "name": "",
          "type": "uint256"
        }
      ],
      "stateMutability": "view",
      "type": "function"
    },
    {
      "inputs": [
        {
          "internalType": "uint256",
          "name": "tokenId",
          "type": "uint256"
        }
      ],
      "name": "getApproved",
      "outputs": [
        {
          "internalType": "address",
          "name": "",
          "type": "address"
        }
      ],
      "stateMutability": "view",
      "type": "function"
    },
    {
      "inputs": [
        {
          "internalType": "address",
          "name": "owner",
          "type": "address"
        },
        {
          "internalType": "address",
          "name": "operator",
          "type": "address"
        }
      ],
      "name": "isApprovedForAll",
      "outputs": [
        {
          "internalType": "bool",
          "name": "",
          "type": "bool"
        }
      ],
      "stateMutability": "view",
      "type": "function"
    },
    {
      "inputs": [],
      "name": "name",
      "outputs": [
        {
          "internalType": "string",
          "name": "",
          "type": "string"
        }
      ],
      "stateMutability": "view",
      "type": "function"
    },
    {
      "inputs": [],
      "name": "owner",
      "outputs": [
        {
          "internalType": "address",
          "name": "",
          "type": "address"
        }
      ],
      "stateMutability": "view",
      "type": "function"
    },
    {
      "inputs": [
        {
          "internalType": "uint256",
          "name": "tokenId",
          "type": "uint256"
        }
      ],
      "name": "ownerOf",
      "outputs": [
        {
          "internalType": "address",
          "name": "",
          "type": "address"
        }
      ],
      "stateMutability": "view",
      "type": "function"
    },
    {
      "inputs": [],
      "name": "renounceOwnership",
      "outputs": [],
      "stateMutability": "nonpayable",
      "type": "function"
    },
    {
      "inputs": [
        {
          "internalType": "address",
          "name": "from",
          "type": "address"
        },
        {
          "internalType": "address",
          "name": "to",
          "type": "address"
        },
        {
          "internalType": "uint256",
          "name": "tokenId",
          "type": "uint256"
        }
      ],
      "name": "safeTransferFrom",
      "outputs": [],
      "stateMutability": "nonpayable",
      "type": "function"
    },
    {
      "inputs": [
        {
          "internalType": "address",
          "name": "from",
          "type": "address"
        },
        {
          "internalType": "address",
          "name": "to",
          "type": "address"
        },
        {
          "internalType": "uint256",
          "name": "tokenId",
          "type": "uint256"
        },
        {
          "internalType": "bytes",
          "name": "_data",
          "type": "bytes"
        }
      ],
      "name": "safeTransferFrom",
      "outputs": [],
      "stateMutability": "nonpayable",
      "type": "function"
    },
    {
      "inputs": [
        {
          "internalType": "address",
          "name": "operator",
          "type": "address"
        },
        {
          "internalType": "bool",
          "name": "approved",
          "type": "bool"
        }
      ],
      "name": "setApprovalForAll",
      "outputs": [],
      "stateMutability": "nonpayable",
      "type": "function"
    },
    {
      "inputs": [
        {
          "internalType": "bytes4",
          "name": "interfaceId",
          "type": "bytes4"
        }
      ],
      "name": "supportsInterface",
      "outputs": [
        {
          "internalType": "bool",
          "name": "",
          "type": "bool"
        }
      ],
      "stateMutability": "view",
      "type": "function"
    },
    {
      "inputs": [],
      "name": "symbol",
      "outputs": [
        {
          "internalType": "string",
          "name": "",
          "type": "string"
        }
      ],
      "stateMutability": "view",
      "type": "function"
    },
    {
      "inputs": [
        {
          "internalType": "address",
          "name": "from",
          "type": "address"
        },
        {
          "internalType": "address",
          "name": "to",
          "type": "address"
        },
        {
          "internalType": "uint256",
          "name": "tokenId",
          "type": "uint256"
        }
      ],
      "name": "transferFrom",
      "outputs": [],
      "stateMutability": "nonpayable",
      "type": "function"
    },
    {
      "inputs": [
        {
          "internalType": "address",
          "name": "newOwner",
          "type": "address"
        }
      ],
      "name": "transferOwnership",
      "outputs": [],
      "stateMutability": "nonpayable",
      "type": "function"
    },
    {
      "inputs": [
        {
          "internalType": "address",
          "name": "to",
          "type": "address"
        }
      ],
      "name": "safeMint",
      "outputs": [],
      "stateMutability": "nonpayable",
      "type": "function"
    },
    {
      "inputs": [
        {
          "internalType": "uint256",
          "name": "tokenId",
          "type": "uint256"
        }
      ],
      "name": "tokenURI",
      "outputs": [
        {
          "internalType": "string",
          "name": "",
          "type": "string"
        }
      ],
      "stateMutability": "view",
      "type": "function"
    },
    {
      "inputs": [
        {
          "internalType": "string",
          "name": "hash",
          "type": "string"
        },
        {
          "internalType": "string",
          "name": "tokenURI",
          "type": "string"
        }
      ],
      "name": "createCollectible",
      "outputs": [
        {
          "internalType": "uint256",
          "name": "",
          "type": "uint256"
        }
      ],
      "stateMutability": "nonpayable",
      "type": "function"
    }
  ],
  "bytecode": "0x60806040523480156200001157600080fd5b506040518060400160405280600981526020017f4a616c65687341727400000000000000000000000000000000000000000000008152506040518060400160405280600381526020017f4a414c000000000000000000000000000000000000000000000000000000000081525081600090805190602001906200009692919062000171565b508060019080519060200190620000af92919062000171565b5050506000620000c46200016960201b60201c565b905080600760006101000a81548173ffffffffffffffffffffffffffffffffffffffff021916908373ffffffffffffffffffffffffffffffffffffffff1602179055508073ffffffffffffffffffffffffffffffffffffffff16600073ffffffffffffffffffffffffffffffffffffffff167f8be0079c531659141344cd1fd0a4f28419497f9722a3daafe3b4186f6b6457e060405160405180910390a35062000286565b600033905090565b8280546200017f9062000221565b90600052602060002090601f016020900481019282620001a35760008555620001ef565b82601f10620001be57805160ff1916838001178555620001ef565b82800160010185558215620001ef579182015b82811115620001ee578251825591602001919060010190620001d1565b5b509050620001fe919062000202565b5090565b5b808211156200021d57600081600090555060010162000203565b5090565b600060028204905060018216806200023a57607f821691505b6020821081141562000251576200025062000257565b5b50919050565b7f4e487b7100000000000000000000000000000000000000000000000000000000600052602260045260246000fd5b61320480620002966000396000f3fe608060405234801561001057600080fd5b50600436106101165760003560e01c8063715018a6116100a2578063b88d4fde11610071578063b88d4fde146102cb578063c87b56dd146102e7578063d2559e9914610317578063e985e9c514610347578063f2fde38b1461037757610116565b8063715018a6146102695780638da5cb5b1461027357806395d89b4114610291578063a22cb465146102af57610116565b806323b872dd116100e957806323b872dd146101b557806340d097c3146101d157806342842e0e146101ed5780636352211e1461020957806370a082311461023957610116565b806301ffc9a71461011b57806306fdde031461014b578063081812fc14610169578063095ea7b314610199575b600080fd5b610135600480360381019061013091906120d5565b610393565b60405161014291906125bc565b60405180910390f35b610153610475565b60405161016091906125d7565b60405180910390f35b610183600480360381019061017e91906121a7565b610507565b6040516101909190612555565b60405180910390f35b6101b360048036038101906101ae9190612095565b61058c565b005b6101cf60048036038101906101ca9190611f7f565b6106a4565b005b6101eb60048036038101906101e69190611f12565b610704565b005b61020760048036038101906102029190611f7f565b6107a0565b005b610223600480360381019061021e91906121a7565b6107c0565b6040516102309190612555565b60405180910390f35b610253600480360381019061024e9190611f12565b610872565b6040516102609190612839565b60405180910390f35b61027161092a565b005b61027b610a67565b6040516102889190612555565b60405180910390f35b610299610a91565b6040516102a691906125d7565b60405180910390f35b6102c960048036038101906102c49190612055565b610b23565b005b6102e560048036038101906102e09190611fd2565b610ca4565b005b61030160048036038101906102fc91906121a7565b610d06565b60405161030e91906125d7565b60405180910390f35b610331600480360381019061032c919061212f565b610d18565b60405161033e9190612839565b60405180910390f35b610361600480360381019061035c9190611f3f565b610dba565b60405161036e91906125bc565b60405180910390f35b610391600480360381019061038c9190611f12565b610e4e565b005b60007f80ac58cd000000000000000000000000000000000000000000000000000000007bffffffffffffffffffffffffffffffffffffffffffffffffffffffff1916827bffffffffffffffffffffffffffffffffffffffffffffffffffffffff1916148061045e57507f5b5e139f000000000000000000000000000000000000000000000000000000007bffffffffffffffffffffffffffffffffffffffffffffffffffffffff1916827bffffffffffffffffffffffffffffffffffffffffffffffffffffffff1916145b8061046e575061046d82610ffa565b5b9050919050565b60606000805461048490612a8f565b80601f01602080910402602001604051908101604052809291908181526020018280546104b090612a8f565b80156104fd5780601f106104d2576101008083540402835291602001916104fd565b820191906000526020600020905b8154815290600101906020018083116104e057829003601f168201915b5050505050905090565b600061051282611064565b610551576040517f08c379a000000000000000000000000000000000000000000000000000000000815260040161054890612779565b60405180910390fd5b6004600083815260200190815260200160002060009054906101000a900473ffffffffffffffffffffffffffffffffffffffff169050919050565b6000610597826107c0565b90508073ffffffffffffffffffffffffffffffffffffffff168373ffffffffffffffffffffffffffffffffffffffff161415610608576040517f08c379a00000000000000000000000000000000000000000000000000000000081526004016105ff906127f9565b60405180910390fd5b8073ffffffffffffffffffffffffffffffffffffffff166106276110d0565b73ffffffffffffffffffffffffffffffffffffffff1614806106565750610655816106506110d0565b610dba565b5b610695576040517f08c379a000000000000000000000000000000000000000000000000000000000815260040161068c906126b9565b60405180910390fd5b61069f83836110d8565b505050565b6106b56106af6110d0565b82611191565b6106f4576040517f08c379a00000000000000000000000000000000000000000000000000000000081526004016106eb90612819565b60405180910390fd5b6106ff83838361126f565b505050565b61070c6110d0565b73ffffffffffffffffffffffffffffffffffffffff1661072a610a67565b73ffffffffffffffffffffffffffffffffffffffff1614610780576040517f08c379a000000000000000000000000000000000000000000000000000000000815260040161077790612799565b60405180910390fd5b6107938161078e60086114cb565b6114d9565b61079d60086114f7565b50565b6107bb83838360405180602001604052806000815250610ca4565b505050565b6000806002600084815260200190815260200160002060009054906101000a900473ffffffffffffffffffffffffffffffffffffffff169050600073ffffffffffffffffffffffffffffffffffffffff168173ffffffffffffffffffffffffffffffffffffffff161415610869576040517f08c379a0000000000000000000000000000000000000000000000000000000008152600401610860906126f9565b60405180910390fd5b80915050919050565b60008073ffffffffffffffffffffffffffffffffffffffff168273ffffffffffffffffffffffffffffffffffffffff1614156108e3576040517f08c379a00000000000000000000000000000000000000000000000000000000081526004016108da906126d9565b60405180910390fd5b600360008373ffffffffffffffffffffffffffffffffffffffff1673ffffffffffffffffffffffffffffffffffffffff168152602001908152602001600020549050919050565b6109326110d0565b73ffffffffffffffffffffffffffffffffffffffff16610950610a67565b73ffffffffffffffffffffffffffffffffffffffff16146109a6576040517f08c379a000000000000000000000000000000000000000000000000000000000815260040161099d90612799565b60405180910390fd5b600073ffffffffffffffffffffffffffffffffffffffff16600760009054906101000a900473ffffffffffffffffffffffffffffffffffffffff1673ffffffffffffffffffffffffffffffffffffffff167f8be0079c531659141344cd1fd0a4f28419497f9722a3daafe3b4186f6b6457e060405160405180910390a36000600760006101000a81548173ffffffffffffffffffffffffffffffffffffffff021916908373ffffffffffffffffffffffffffffffffffffffff160217905550565b6000600760009054906101000a900473ffffffffffffffffffffffffffffffffffffffff16905090565b606060018054610aa090612a8f565b80601f0160208091040260200160405190810160405280929190818152602001828054610acc90612a8f565b8015610b195780601f10610aee57610100808354040283529160200191610b19565b820191906000526020600020905b815481529060010190602001808311610afc57829003601f168201915b5050505050905090565b610b2b6110d0565b73ffffffffffffffffffffffffffffffffffffffff168273ffffffffffffffffffffffffffffffffffffffff161415610b99576040517f08c379a0000000000000000000000000000000000000000000000000000000008152600401610b9090612679565b60405180910390fd5b8060056000610ba66110d0565b73ffffffffffffffffffffffffffffffffffffffff1673ffffffffffffffffffffffffffffffffffffffff16815260200190815260200160002060008473ffffffffffffffffffffffffffffffffffffffff1673ffffffffffffffffffffffffffffffffffffffff16815260200190815260200160002060006101000a81548160ff0219169083151502179055508173ffffffffffffffffffffffffffffffffffffffff16610c536110d0565b73ffffffffffffffffffffffffffffffffffffffff167f17307eab39ab6107e8899845ad3d59bd9653f200f220920489ca2b5937696c3183604051610c9891906125bc565b60405180910390a35050565b610cb5610caf6110d0565b83611191565b610cf4576040517f08c379a0000000000000000000000000000000000000000000000000000000008152600401610ceb90612819565b60405180910390fd5b610d008484848461150d565b50505050565b6060610d1182611569565b9050919050565b60006001600984604051610d2c919061251a565b908152602001604051809103902060009054906101000a900460ff1660ff161415610d5657600080fd5b6001600984604051610d68919061251a565b908152602001604051809103902060006101000a81548160ff021916908360ff160217905550610d9860086114f7565b6000610da460086114cb565b9050610db081846116bb565b8091505092915050565b6000600560008473ffffffffffffffffffffffffffffffffffffffff1673ffffffffffffffffffffffffffffffffffffffff16815260200190815260200160002060008373ffffffffffffffffffffffffffffffffffffffff1673ffffffffffffffffffffffffffffffffffffffff16815260200190815260200160002060009054906101000a900460ff16905092915050565b610e566110d0565b73ffffffffffffffffffffffffffffffffffffffff16610e74610a67565b73ffffffffffffffffffffffffffffffffffffffff1614610eca576040517f08c379a0000000000000000000000000000000000000000000000000000000008152600401610ec190612799565b60405180910390fd5b600073ffffffffffffffffffffffffffffffffffffffff168173ffffffffffffffffffffffffffffffffffffffff161415610f3a576040517f08c379a0000000000000000000000000000000000000000000000000000000008152600401610f3190612619565b60405180910390fd5b8073ffffffffffffffffffffffffffffffffffffffff16600760009054906101000a900473ffffffffffffffffffffffffffffffffffffffff1673ffffffffffffffffffffffffffffffffffffffff167f8be0079c531659141344cd1fd0a4f28419497f9722a3daafe3b4186f6b6457e060405160405180910390a380600760006101000a81548173ffffffffffffffffffffffffffffffffffffffff021916908373ffffffffffffffffffffffffffffffffffffffff16021790555050565b60007f01ffc9a7000000000000000000000000000000000000000000000000000000007bffffffffffffffffffffffffffffffffffffffffffffffffffffffff1916827bffffffffffffffffffffffffffffffffffffffffffffffffffffffff1916149050919050565b60008073ffffffffffffffffffffffffffffffffffffffff166002600084815260200190815260200160002060009054906101000a900473ffffffffffffffffffffffffffffffffffffffff1673ffffffffffffffffffffffffffffffffffffffff1614159050919050565b600033905090565b816004600083815260200190815260200160002060006101000a81548173ffffffffffffffffffffffffffffffffffffffff021916908373ffffffffffffffffffffffffffffffffffffffff160217905550808273ffffffffffffffffffffffffffffffffffffffff1661114b836107c0565b73ffffffffffffffffffffffffffffffffffffffff167f8c5be1e5ebec7d5bd14f71427d1e84f3dd0314c0f7b2291e5b200ac8c7c3b92560405160405180910390a45050565b600061119c82611064565b6111db576040517f08c379a00000000000000000000000000000000000000000000000000000000081526004016111d290612699565b60405180910390fd5b60006111e6836107c0565b90508073ffffffffffffffffffffffffffffffffffffffff168473ffffffffffffffffffffffffffffffffffffffff16148061125557508373ffffffffffffffffffffffffffffffffffffffff1661123d84610507565b73ffffffffffffffffffffffffffffffffffffffff16145b8061126657506112658185610dba565b5b91505092915050565b8273ffffffffffffffffffffffffffffffffffffffff1661128f826107c0565b73ffffffffffffffffffffffffffffffffffffffff16146112e5576040517f08c379a00000000000000000000000000000000000000000000000000000000081526004016112dc906127b9565b60405180910390fd5b600073ffffffffffffffffffffffffffffffffffffffff168273ffffffffffffffffffffffffffffffffffffffff161415611355576040517f08c379a000000000000000000000000000000000000000000000000000000000815260040161134c90612659565b60405180910390fd5b61136083838361172f565b61136b6000826110d8565b6001600360008573ffffffffffffffffffffffffffffffffffffffff1673ffffffffffffffffffffffffffffffffffffffff16815260200190815260200160002060008282546113bb91906129a5565b925050819055506001600360008473ffffffffffffffffffffffffffffffffffffffff1673ffffffffffffffffffffffffffffffffffffffff1681526020019081526020016000206000828254611412919061291e565b92505081905550816002600083815260200190815260200160002060006101000a81548173ffffffffffffffffffffffffffffffffffffffff021916908373ffffffffffffffffffffffffffffffffffffffff160217905550808273ffffffffffffffffffffffffffffffffffffffff168473ffffffffffffffffffffffffffffffffffffffff167fddf252ad1be2c89b69c2b068fc378daa952ba7f163c4a11628f55a4df523b3ef60405160405180910390a4505050565b600081600001549050919050565b6114f3828260405180602001604052806000815250611734565b5050565b6001816000016000828254019250508190555050565b61151884848461126f565b6115248484848461178f565b611563576040517f08c379a000000000000000000000000000000000000000000000000000000000815260040161155a906125f9565b60405180910390fd5b50505050565b606061157482611064565b6115b3576040517f08c379a00000000000000000000000000000000000000000000000000000000081526004016115aa90612759565b60405180910390fd5b60006006600084815260200190815260200160002080546115d390612a8f565b80601f01602080910402602001604051908101604052809291908181526020018280546115ff90612a8f565b801561164c5780601f106116215761010080835404028352916020019161164c565b820191906000526020600020905b81548152906001019060200180831161162f57829003601f168201915b50505050509050600061165d611926565b90506000815114156116735781925050506116b6565b6000825111156116a8578082604051602001611690929190612531565b604051602081830303815290604052925050506116b6565b6116b18461193d565b925050505b919050565b6116c482611064565b611703576040517f08c379a00000000000000000000000000000000000000000000000000000000081526004016116fa90612719565b60405180910390fd5b8060066000848152602001908152602001600020908051906020019061172a929190611d26565b505050565b505050565b61173e83836119e4565b61174b600084848461178f565b61178a576040517f08c379a0000000000000000000000000000000000000000000000000000000008152600401611781906125f9565b60405180910390fd5b505050565b60006117b08473ffffffffffffffffffffffffffffffffffffffff16611bb2565b15611919578373ffffffffffffffffffffffffffffffffffffffff1663150b7a026117d96110d0565b8786866040518563ffffffff1660e01b81526004016117fb9493929190612570565b602060405180830381600087803b15801561181557600080fd5b505af192505050801561184657506040513d601f19601f820116820180604052508101906118439190612102565b60015b6118c9573d8060008114611876576040519150601f19603f3d011682016040523d82523d6000602084013e61187b565b606091505b506000815114156118c1576040517f08c379a00000000000000000000000000000000000000000000000000000000081526004016118b8906125f9565b60405180910390fd5b805181602001fd5b63150b7a0260e01b7bffffffffffffffffffffffffffffffffffffffffffffffffffffffff1916817bffffffffffffffffffffffffffffffffffffffffffffffffffffffff19161491505061191e565b600190505b949350505050565b606060405180602001604052806000815250905090565b606061194882611064565b611987576040517f08c379a000000000000000000000000000000000000000000000000000000000815260040161197e906127d9565b60405180910390fd5b6000611991611926565b905060008151116119b157604051806020016040528060008152506119dc565b806119bb84611bc5565b6040516020016119cc929190612531565b6040516020818303038152906040525b915050919050565b600073ffffffffffffffffffffffffffffffffffffffff168273ffffffffffffffffffffffffffffffffffffffff161415611a54576040517f08c379a0000000000000000000000000000000000000000000000000000000008152600401611a4b90612739565b60405180910390fd5b611a5d81611064565b15611a9d576040517f08c379a0000000000000000000000000000000000000000000000000000000008152600401611a9490612639565b60405180910390fd5b611aa96000838361172f565b6001600360008473ffffffffffffffffffffffffffffffffffffffff1673ffffffffffffffffffffffffffffffffffffffff1681526020019081526020016000206000828254611af9919061291e565b92505081905550816002600083815260200190815260200160002060006101000a81548173ffffffffffffffffffffffffffffffffffffffff021916908373ffffffffffffffffffffffffffffffffffffffff160217905550808273ffffffffffffffffffffffffffffffffffffffff16600073ffffffffffffffffffffffffffffffffffffffff167fddf252ad1be2c89b69c2b068fc378daa952ba7f163c4a11628f55a4df523b3ef60405160405180910390a45050565b600080823b905060008111915050919050565b60606000821415611c0d576040518060400160405280600181526020017f30000000000000000000000000000000000000000000000000000000000000008152509050611d21565b600082905060005b60008214611c3f578080611c2890612af2565b915050600a82611c389190612974565b9150611c15565b60008167ffffffffffffffff811115611c5b57611c5a612c28565b5b6040519080825280601f01601f191660200182016040528015611c8d5781602001600182028036833780820191505090505b5090505b60008514611d1a57600182611ca691906129a5565b9150600a85611cb59190612b3b565b6030611cc1919061291e565b60f81b818381518110611cd757611cd6612bf9565b5b60200101907effffffffffffffffffffffffffffffffffffffffffffffffffffffffffffff1916908160001a905350600a85611d139190612974565b9450611c91565b8093505050505b919050565b828054611d3290612a8f565b90600052602060002090601f016020900481019282611d545760008555611d9b565b82601f10611d6d57805160ff1916838001178555611d9b565b82800160010185558215611d9b579182015b82811115611d9a578251825591602001919060010190611d7f565b5b509050611da89190611dac565b5090565b5b80821115611dc5576000816000905550600101611dad565b5090565b6000611ddc611dd784612879565b612854565b905082815260208101848484011115611df857611df7612c5c565b5b611e03848285612a4d565b509392505050565b6000611e1e611e19846128aa565b612854565b905082815260208101848484011115611e3a57611e39612c5c565b5b611e45848285612a4d565b509392505050565b600081359050611e5c81613172565b92915050565b600081359050611e7181613189565b92915050565b600081359050611e86816131a0565b92915050565b600081519050611e9b816131a0565b92915050565b600082601f830112611eb657611eb5612c57565b5b8135611ec6848260208601611dc9565b91505092915050565b600082601f830112611ee457611ee3612c57565b5b8135611ef4848260208601611e0b565b91505092915050565b600081359050611f0c816131b7565b92915050565b600060208284031215611f2857611f27612c66565b5b6000611f3684828501611e4d565b91505092915050565b60008060408385031215611f5657611f55612c66565b5b6000611f6485828601611e4d565b9250506020611f7585828601611e4d565b9150509250929050565b600080600060608486031215611f9857611f97612c66565b5b6000611fa686828701611e4d565b9350506020611fb786828701611e4d565b9250506040611fc886828701611efd565b9150509250925092565b60008060008060808587031215611fec57611feb612c66565b5b6000611ffa87828801611e4d565b945050602061200b87828801611e4d565b935050604061201c87828801611efd565b925050606085013567ffffffffffffffff81111561203d5761203c612c61565b5b61204987828801611ea1565b91505092959194509250565b6000806040838503121561206c5761206b612c66565b5b600061207a85828601611e4d565b925050602061208b85828601611e62565b9150509250929050565b600080604083850312156120ac576120ab612c66565b5b60006120ba85828601611e4d565b92505060206120cb85828601611efd565b9150509250929050565b6000602082840312156120eb576120ea612c66565b5b60006120f984828501611e77565b91505092915050565b60006020828403121561211857612117612c66565b5b600061212684828501611e8c565b91505092915050565b6000806040838503121561214657612145612c66565b5b600083013567ffffffffffffffff81111561216457612163612c61565b5b61217085828601611ecf565b925050602083013567ffffffffffffffff81111561219157612190612c61565b5b61219d85828601611ecf565b9150509250929050565b6000602082840312156121bd576121bc612c66565b5b60006121cb84828501611efd565b91505092915050565b6121dd816129d9565b82525050565b6121ec816129eb565b82525050565b60006121fd826128db565b61220781856128f1565b9350612217818560208601612a5c565b61222081612c6b565b840191505092915050565b6000612236826128e6565b6122408185612902565b9350612250818560208601612a5c565b61225981612c6b565b840191505092915050565b600061226f826128e6565b6122798185612913565b9350612289818560208601612a5c565b80840191505092915050565b60006122a2603283612902565b91506122ad82612c7c565b604082019050919050565b60006122c5602683612902565b91506122d082612ccb565b604082019050919050565b60006122e8601c83612902565b91506122f382612d1a565b602082019050919050565b600061230b602483612902565b915061231682612d43565b604082019050919050565b600061232e601983612902565b915061233982612d92565b602082019050919050565b6000612351602c83612902565b915061235c82612dbb565b604082019050919050565b6000612374603883612902565b915061237f82612e0a565b604082019050919050565b6000612397602a83612902565b91506123a282612e59565b604082019050919050565b60006123ba602983612902565b91506123c582612ea8565b604082019050919050565b60006123dd602e83612902565b91506123e882612ef7565b604082019050919050565b6000612400602083612902565b915061240b82612f46565b602082019050919050565b6000612423603183612902565b915061242e82612f6f565b604082019050919050565b6000612446602c83612902565b915061245182612fbe565b604082019050919050565b6000612469602083612902565b91506124748261300d565b602082019050919050565b600061248c602983612902565b915061249782613036565b604082019050919050565b60006124af602f83612902565b91506124ba82613085565b604082019050919050565b60006124d2602183612902565b91506124dd826130d4565b604082019050919050565b60006124f5603183612902565b915061250082613123565b604082019050919050565b61251481612a43565b82525050565b60006125268284612264565b915081905092915050565b600061253d8285612264565b91506125498284612264565b91508190509392505050565b600060208201905061256a60008301846121d4565b92915050565b600060808201905061258560008301876121d4565b61259260208301866121d4565b61259f604083018561250b565b81810360608301526125b181846121f2565b905095945050505050565b60006020820190506125d160008301846121e3565b92915050565b600060208201905081810360008301526125f1818461222b565b905092915050565b6000602082019050818103600083015261261281612295565b9050919050565b60006020820190508181036000830152612632816122b8565b9050919050565b60006020820190508181036000830152612652816122db565b9050919050565b60006020820190508181036000830152612672816122fe565b9050919050565b6000602082019050818103600083015261269281612321565b9050919050565b600060208201905081810360008301526126b281612344565b9050919050565b600060208201905081810360008301526126d281612367565b9050919050565b600060208201905081810360008301526126f28161238a565b9050919050565b60006020820190508181036000830152612712816123ad565b9050919050565b60006020820190508181036000830152612732816123d0565b9050919050565b60006020820190508181036000830152612752816123f3565b9050919050565b6000602082019050818103600083015261277281612416565b9050919050565b6000602082019050818103600083015261279281612439565b9050919050565b600060208201905081810360008301526127b28161245c565b9050919050565b600060208201905081810360008301526127d28161247f565b9050919050565b600060208201905081810360008301526127f2816124a2565b9050919050565b60006020820190508181036000830152612812816124c5565b9050919050565b60006020820190508181036000830152612832816124e8565b9050919050565b600060208201905061284e600083018461250b565b92915050565b600061285e61286f565b905061286a8282612ac1565b919050565b6000604051905090565b600067ffffffffffffffff82111561289457612893612c28565b5b61289d82612c6b565b9050602081019050919050565b600067ffffffffffffffff8211156128c5576128c4612c28565b5b6128ce82612c6b565b9050602081019050919050565b600081519050919050565b600081519050919050565b600082825260208201905092915050565b600082825260208201905092915050565b600081905092915050565b600061292982612a43565b915061293483612a43565b9250827fffffffffffffffffffffffffffffffffffffffffffffffffffffffffffffffff0382111561296957612968612b6c565b5b828201905092915050565b600061297f82612a43565b915061298a83612a43565b92508261299a57612999612b9b565b5b828204905092915050565b60006129b082612a43565b91506129bb83612a43565b9250828210156129ce576129cd612b6c565b5b828203905092915050565b60006129e482612a23565b9050919050565b60008115159050919050565b60007fffffffff0000000000000000000000000000000000000000000000000000000082169050919050565b600073ffffffffffffffffffffffffffffffffffffffff82169050919050565b6000819050919050565b82818337600083830152505050565b60005b83811015612a7a578082015181840152602081019050612a5f565b83811115612a89576000848401525b50505050565b60006002820490506001821680612aa757607f821691505b60208210811415612abb57612aba612bca565b5b50919050565b612aca82612c6b565b810181811067ffffffffffffffff82111715612ae957612ae8612c28565b5b80604052505050565b6000612afd82612a43565b91507fffffffffffffffffffffffffffffffffffffffffffffffffffffffffffffffff821415612b3057612b2f612b6c565b5b600182019050919050565b6000612b4682612a43565b9150612b5183612a43565b925082612b6157612b60612b9b565b5b828206905092915050565b7f4e487b7100000000000000000000000000000000000000000000000000000000600052601160045260246000fd5b7f4e487b7100000000000000000000000000000000000000000000000000000000600052601260045260246000fd5b7f4e487b7100000000000000000000000000000000000000000000000000000000600052602260045260246000fd5b7f4e487b7100000000000000000000000000000000000000000000000000000000600052603260045260246000fd5b7f4e487b7100000000000000000000000000000000000000000000000000000000600052604160045260246000fd5b600080fd5b600080fd5b600080fd5b600080fd5b6000601f19601f8301169050919050565b7f4552433732313a207472616e7366657220746f206e6f6e20455243373231526560008201527f63656976657220696d706c656d656e7465720000000000000000000000000000602082015250565b7f4f776e61626c653a206e6577206f776e657220697320746865207a65726f206160008201527f6464726573730000000000000000000000000000000000000000000000000000602082015250565b7f4552433732313a20746f6b656e20616c7265616479206d696e74656400000000600082015250565b7f4552433732313a207472616e7366657220746f20746865207a65726f2061646460008201527f7265737300000000000000000000000000000000000000000000000000000000602082015250565b7f4552433732313a20617070726f766520746f2063616c6c657200000000000000600082015250565b7f4552433732313a206f70657261746f7220717565727920666f72206e6f6e657860008201527f697374656e7420746f6b656e0000000000000000000000000000000000000000602082015250565b7f4552433732313a20617070726f76652063616c6c6572206973206e6f74206f7760008201527f6e6572206e6f7220617070726f76656420666f7220616c6c0000000000000000602082015250565b7f4552433732313a2062616c616e636520717565727920666f7220746865207a6560008201527f726f206164647265737300000000000000000000000000000000000000000000602082015250565b7f4552433732313a206f776e657220717565727920666f72206e6f6e657869737460008201527f656e7420746f6b656e0000000000000000000000000000000000000000000000602082015250565b7f45524337323155524953746f726167653a2055524920736574206f66206e6f6e60008201527f6578697374656e7420746f6b656e000000000000000000000000000000000000602082015250565b7f4552433732313a206d696e7420746f20746865207a65726f2061646472657373600082015250565b7f45524337323155524953746f726167653a2055524920717565727920666f722060008201527f6e6f6e6578697374656e7420746f6b656e000000000000000000000000000000602082015250565b7f4552433732313a20617070726f76656420717565727920666f72206e6f6e657860008201527f697374656e7420746f6b656e0000000000000000000000000000000000000000602082015250565b7f4f776e61626c653a2063616c6c6572206973206e6f7420746865206f776e6572600082015250565b7f4552433732313a207472616e73666572206f6620746f6b656e2074686174206960008201527f73206e6f74206f776e0000000000000000000000000000000000000000000000602082015250565b7f4552433732314d657461646174613a2055524920717565727920666f72206e6f60008201527f6e6578697374656e7420746f6b656e0000000000000000000000000000000000602082015250565b7f4552433732313a20617070726f76616c20746f2063757272656e74206f776e6560008201527f7200000000000000000000000000000000000000000000000000000000000000602082015250565b7f4552433732313a207472616e736665722063616c6c6572206973206e6f74206f60008201527f776e6572206e6f7220617070726f766564000000000000000000000000000000602082015250565b61317b816129d9565b811461318657600080fd5b50565b613192816129eb565b811461319d57600080fd5b50565b6131a9816129f7565b81146131b457600080fd5b50565b6131c081612a43565b81146131cb57600080fd5b5056fea2646970667358221220f73533dca7ed09cb27d5cd3c403ef035d65ffacd08e0c5603be455b1a28b2af364736f6c63430008050033",
  "immutableReferences": {},
  "source": "// SPDX-License-Identifier: MIT\n\n\npragma solidity ^0.8.0;\n\n\nimport \"@openzeppelin/contracts/token/ERC721/ERC721.sol\";\nimport '@openzeppelin/contracts/token/ERC721/extensions/ERC721URIStorage.sol';\nimport \"@openzeppelin/contracts/access/Ownable.sol\";\nimport \"@openzeppelin/contracts/utils/Counters.sol\";\n\n\n// 'is' solidity version of inheritance, so brining all functions from this ERC721 code and brining it into our token. \ncontract JalehsArt is ERC721, ERC721URIStorage, Ownable {\n\n\nusing Counters for Counters.Counter;\nCounters.Counter private _tokenIds; //count all our tokens and iterate by +1\nmapping(string => uint8) hashes;\n\n\n  constructor() public ERC721(\"JalehsArt\", \"JAL\") {\n\n  }\n\n function safeMint(address to) public onlyOwner {\n        _safeMint(to, _tokenIds.current());\n        _tokenIds.increment();\n    }\n\n    function _burn(uint256 tokenId) internal override(ERC721, ERC721URIStorage) {\n        super._burn(tokenId);\n    }\n\n    function tokenURI(uint256 tokenId)\n        public\n        view\n        override(ERC721, ERC721URIStorage)\n        returns (string memory)\n    {\n        return super.tokenURI(tokenId);\n    }\n\n\n  function createCollectible(string memory hash, string memory tokenURI) public returns (uint256) {\n  require(hashes [hash] != 1);\n  hashes[hash] = 1;\n  _tokenIds.increment();\n  uint256 newItemId = _tokenIds.current();\n  _setTokenURI(newItemId, tokenURI);\n  return newItemId;\n}\n\n}\n",
  "sourcePath": "/Users/devdirector/Desktop/NFTExample/contracts/JalehsArt.sol",
  "compiler": {
    "name": "solc",
    "version": "0.8.5+commit.a4f2e591.Emscripten.clang"
  },
  "schemaVersion": "3.4.0",
  "updatedAt": "2021-06-13T03:37:06.918Z",
  "devdoc": {
    "kind": "dev",
    "methods": {
      "approve(address,uint256)": {
        "details": "See {IERC721-approve}."
      },
      "balanceOf(address)": {
        "details": "See {IERC721-balanceOf}."
      },
      "getApproved(uint256)": {
        "details": "See {IERC721-getApproved}."
      },
      "isApprovedForAll(address,address)": {
        "details": "See {IERC721-isApprovedForAll}."
      },
      "name()": {
        "details": "See {IERC721Metadata-name}."
      },
      "owner()": {
        "details": "Returns the address of the current owner."
      },
      "ownerOf(uint256)": {
        "details": "See {IERC721-ownerOf}."
      },
      "renounceOwnership()": {
        "details": "Leaves the contract without owner. It will not be possible to call `onlyOwner` functions anymore. Can only be called by the current owner. NOTE: Renouncing ownership will leave the contract without an owner, thereby removing any functionality that is only available to the owner."
      },
      "safeTransferFrom(address,address,uint256)": {
        "details": "See {IERC721-safeTransferFrom}."
      },
      "safeTransferFrom(address,address,uint256,bytes)": {
        "details": "See {IERC721-safeTransferFrom}."
      },
      "setApprovalForAll(address,bool)": {
        "details": "See {IERC721-setApprovalForAll}."
      },
      "supportsInterface(bytes4)": {
        "details": "See {IERC165-supportsInterface}."
      },
      "symbol()": {
        "details": "See {IERC721Metadata-symbol}."
      },
      "transferFrom(address,address,uint256)": {
        "details": "See {IERC721-transferFrom}."
      },
      "transferOwnership(address)": {
        "details": "Transfers ownership of the contract to a new account (`newOwner`). Can only be called by the current owner."
      }
    },
    "version": 1
  },
  "userdoc": {
    "kind": "user",
    "methods": {},
    "version": 1
  }
}